:020000040800F2
:10000000B809002085350008313400083334000871
:100010003534000837340008393400080000000087
:100020000000000000000000000000003B34000859
:100030003D340008000000003F340008413400084F
:10004000B9350008BD350008C1350008C5350008C0
:10005000C9350008CD350008D1350008D535000870
:10006000D9350008DD350008E1350008E535000820
:10007000E9350008ED350008F1350008F5350008D0
:10008000F9350008FD35000801360008053600087E
:10009000093600080D36000811360008153600082C
:1000A000193600081D3600082136000825360008DC
:1000B00045340008293600082D360008313600087E
:1000C00035360008393600083D360008413600084C
:1000D000453600084B340008493600084D36000804
:1000E0005136000855360008593600085D360008BC
:1000F0006136000865360008693600086D3600086C
:100100007136000875360008793600087D3600081B
:100110008136000885360008893600088D360008CB
:100120009136000895360008993600089D3600087B
:10013000A13600080000000000000000A5360008FD
:10014000A9360008AD360008B1360008B5360008FB
:10015000B9360008BD36000851340008C136000821
:10016000C5360008C9360008CD360008D13600086B
:10017000D5360008D9360008000000000000000055
:10018000DD360008E136000810B5DFF8B045002183
:10019000204600F007FB2046BDE81040102100F08B
:1001A00001BB2DE9F84FDFF898652DED028B7768DC
:1001B00081467F1C0C4690461D46384600F056FB93
:1001C000DFF88025DFF8803500F05EFB82468B4645
:1001D00000F073F802460B465046594600F026FCE4
:1001E00041EC100B00F048FDB0EE408AF0EE608A62
:1001F000484600F03BFB53EC182B00F045FB00F0A9
:100200008EF800F088F84044B060A74224BF7570B3
:1002100000277760BDEC028BBDE8F18F30B5DFF8C9
:10022000204565686D1C1018A0608D4224BF637066
:100230000025656030BD7CB5DFF804450D4661687A
:10024000491C10186160A0601E464FF40041DFF8A1
:10025000FC0400F0F0FD28B96068AE1BB04224BF7A
:100260000698A0606068A84203D3079860700020D9
:10027000606073BD2DE9F04100F016F800F04FF812
:1002800000F049F8874207D3381B00F0EFFA00F07E
:1002900046F800F040F800E000204645A86002D390
:1002A00003206870002633E0DFF894546E68761CF3
:1002B00088467043B0FBF8F41746204600F0D6BAE3
:1002C00070B500F03FF800F02AF800F024F8AE42D4
:1002D000A06002D3042060700026666070BD2DE926
:1002E000F041FFF7E1FF00F01AF800F014F8874240
:1002F00007D3381B00F0BAFA00F011F800F00BF841
:1003000000E000204645A86002D305206870002662
:100310006E60BDE8F08151EC100B00F0B5BD41EC12
:10032000100B00F0C5BD70B500F00CF8FFF7F7FF3B
:10033000FFF7F1FFAE42A06002D3062060700026F6
:10034000666070BDDFF8F8436668761C0D46704342
:10035000B0FBF5F0801800F089BA0000FEB5DFF8B8
:10036000E06372780546092A43F698204CF250342F
:1003700041F2883140F6FF7768D8DFE802F0050ADD
:10038000171E262E353D434C01234FF41662C8201C
:100390003EE0022140F60B62019100927D234FF472
:1003A000166221460020FFF746FF52E001464FF457
:1003B0001662DC20FFF75EFF4BE0014640F6840248
:1003C00040F27B70FFF77CFF43E0014640F6E172AC
:1003D00040F29970FFF783FF3BE0014640F666026A
:1003E000FA20FFF7A0FF34E007234FF416622146FE
:1003F0000020FFF713FF2CE008234FF416624FF4A0
:10040000C87005E009234FF4166240F6C411642059
:10041000FFF7C7FE1DE0002001900097FA234FF47C
:100420001662CB49FFF707FF707890B94021C948A1
:1004300000F00BFD3078032805DB0421C64800F0EE
:1004400004FD002000E0401C307002E000207070CD
:10045000706040F2D171B068B84CB84288BFB760E4
:10046000B368A3F5FA60884234BFC3F57A60002010
:10047000F0600022002100F081F8F36800F07CF8C1
:10048000002000E0401CA842FCD3F7BD70B5AC4D85
:1004900016466A68521C914238BF00226A60504377
:1004A0001C46B0FBF1F000F0E1F9FFF738FFFFF771
:1004B00032FF861940F6FF70864288BF06463346F3
:1004C000AE60C01AE86000229C4E73E02DE9F04750
:1004D0009B4F2DED028B0C467968491C8C4238BF2E
:1004E0000021824679601E461546084600F0BEF996
:1004F000944A9A4B00F0C8F980468946FFF7DDFE22
:1005000002460B464046494600F090FA41EC100B7B
:1005100000F0B2FBB0EE408AF0EE608A284600F0B0
:10052000A5F904460D46504600F0A0F953EC182BEF
:1005300000F0AAF922462B4600F0ECFCFFF7EFFE94
:10054000FFF7E9FE40F6FF71884288BF0846034680
:10055000C91AB860F9600022784C002100F00EF84A
:10056000FB6800F009F8002000E0401CB042FCD31A
:10057000BDEC028BBDE8F08700221021204600F080
:1005800065B970B56E4D6D4E1C466B685B1C99422B
:1005900038BF00236B60B3EB510F34BF8018101AC3
:1005A00040F6FF71884288BF08460346C91AA86012
:1005B000E96000220021304600F048F9EB68002293
:1005C0001021304600F042F9002000E0401CA0421B
:1005D000FCD370BD70B5624C2178032940F2A57040
:1005E00040F2FF721AD8DFE801F002060C15002075
:1005F000FFF7B4FE12E0002344F62061FFF766FF28
:100600000CE00023002249F6404140F6FE70FFF75F
:100610003DFF03E000234E49FFF7B3FF2078514D23
:100620004A4EF0B14FF48051304600F004FCB0B9AE
:100630006068401C6428606013D3002020706060F4
:10064000002200F097F800F08FF801224FF480713B
:1006500000F08DF80122802100F089F801E00020EF
:1006600060602078012823D04FF48041304600F0AC
:10067000E2FBC0B9E068401C6428E06015D30120AB
:10068000207001220020E06000F074F8002200F0E9
:100690006CF801224FF4807100F069F8012280218A
:1006A00000F065F801E00020E0602078022822D008
:1006B0004FF40051304600F0BEFBB8B9A068401CB2
:1006C0006428A06014D30220207001220020A060C2
:1006D00000F050F800F048F800224FF4807100F06C
:1006E00046F80122802100F042F801E00020A060DD
:1006F0002078032821D04FF48051284600F09BFB3E
:10070000C8B92069401C6428206116D303202070DA
:1007100001220020206100F02DF800F025F80122D0
:100720004FF4807100F023F82846BDE870400022A5
:10073000802100F086BB0020206170BD7001002088
:1007400098010020A7E8482EFF210940000402403C
:100750008038010000000240000C0240FF211940D7
:10076000840100200008024001224FF40061284665
:1007700000F067BB4021284600F063BB10B50400C1
:1007800001D1012010BD207920B9002161712046DE
:1007900000F0A0FC022020710020206101202071C7
:1007A000002010BD10B54279012A01D1022010BDF0
:1007B00001234371022202710124026813688C40F4
:1007C00023431360002902681368116809D15B078D
:1007D00012D501F0380138290ED1516841F00101DC
:1007E00009E05B0308D501F46011B1F5601F03D186
:1007F000516841F0020151600122027100214171F2
:10080000002010BD30B54379012B01D1022030BD4D
:10081000012444710223037140F6FE7503681C68CD
:100820009540AC430D6849680D4395402C431C60CE
:10083000C02401680B6804FA02F223EA02020A608B
:100840000121017100214171002030BD18B5002443
:1008500000940029006800900CBF08321432009800
:100860001218009200980360002012BD014648B1A2
:10087000B0FA80F18840C91CC1F58461090501EB1B
:10088000D021400570470000B0B581EA030C0CF0A0
:10089000004C40F2FF7515EA11541DBF15EA1357BD
:1008A000AC42AF4239E0E41923EA455343F48013E4
:1008B000C90241F0004141EA505EC7021100A7FBA6
:1008C000020200284FF00000EEFB01204FF0000173
:1008D000E3FB072118BF42F0010240180021494103
:1008E000E3FB0E01A4F580640F0302D252004041E5
:1008F000494154F101046CDD470872F1004250F1A6
:10090000000051EB0451A1F580115CBF41EA0C01DC
:10091000B0BD4CEA05510020B0BD05EA1357AC420A
:1009200014BFAF4241E050EA410E1CBF52EA430EF1
:1009300002E061460020B0BD24423C441BD15FEA86
:10094000070EF6D0090302BF01460020AEF1140ED7
:10095000B1FA81F7AEEB070401FA07FE0C37C7F1D5
:10096000200100FA07F7C8404EEA000E23EA45537B
:1009700043F48013A2E733F00043B3FA83F704BFD4
:10098000B2FA82FE77440B3FE41BB7F1200E2FBF73
:1009900002FA0EF3BB40C7F1200E22FA0EFE38BF5A
:1009A00043EA0E03BA40641C82E750EA410E14BFCA
:1009B00052EA430E6FF000014FF4001717EB430F9C
:1009C0008ABF194617EB410FB5E74CEA05510020E5
:1009D000B0BDD4F10104B4F120070FDAC4F120074F
:1009E000520828BF42F0010210FA07F501FA07F792
:1009F000E1BF2A43E0403843E1400FE0352C98DC6A
:100A0000C7F1200452EA400220FA07F218BF42F070
:100A1000010231FA07F0A1400A43002172F10042BD
:100A200050F1000051EB0C01B0BD0000F0B540F2F8
:100A3000FF7581EA030C0CF0004C15EA11541DBF40
:100A400015EA1357AC42AF42E5E0BC41C1F31301D4
:100A5000C3F31303801A994143F4801304D2641E34
:100A60004000494180185941C90241EA5051B1FB47
:100A7000F3F603FB1611A2FB0675D7EBC020A941C4
:100A800002D2761E80185941C90241EA5051B1FB89
:100A9000F3FE03FB1E11A2FB0E75D7EBC020A9418C
:100AA00003D2AEF1010E80185941890241EA9051FA
:100AB000760546EA8E2EB1FBF3F603FB1611A2FB78
:100AC0000675D7EB8020A94102D2761E80185941C5
:100AD000C90241EA50514EEA060EB1FBF3F603FBA0
:100AE0001611A2FB0675D7EBC020A94102D2761ED3
:100AF00080185941C90241EA5051B1FBF3F703FB99
:100B00001711A2FB0735D3EBC020A94167F10007FD
:100B10000CBF004247F0010766F3D5274FEA1E31AC
:100B2000B80814F5806412DDBD0775F1004250EB82
:100B30000E5051EB045111F5801F5CBF41EA0C01CE
:100B4000F0BD4CF07F6141F0E0410020F0BDBD07F9
:100B50006D0840EA0E5041F48011D4F10104B4F163
:100B600020060ADAC4F120060200E04001FA06F38A
:100B7000E1401843B24015430EE0342C13DCC6F1BB
:100B8000200445EA40056D0820FA06F2154321FAD3
:100B900006F0A1400D43002175F1004250F1000024
:100BA00051EB0C01F0BD00205FEA0C01F0BDCFB9A4
:100BB00092185B41B3FA83F704BFB2FA82F6BF1909
:100BC0000B3FB7F120062FBF02FA06F3BB40C7F177
:100BD000200622FA06F638BF3343BA401CB1E419A6
:100BE000641E33E77F4231F00041B1FA81F404BF63
:100BF000B0FA80F6A4190B3CB4F120062FBF00FA1E
:100C000006F1A140C4F1200620FA06F638BF3143B0
:100C1000A0403C1B1AE7AC421ABF05EA1357AF428B
:100C200012E050EA41061CBF52EA4306BFE750EA11
:100C30004107304661461CBF41EA0551F0BD52EA0A
:100C4000430C08BFC143F0BD00204FF4001616EB63
:100C5000410F98BF16EB430F08BF16EB410F24BF9F
:100C6000C14305E016EB430F0CBF61464CEA05514A
:100C7000F0BD41EC100B01BD80B551EC100B00F044
:100C800085FCF6E72DE9F84F0D464FF00008734953
:100C9000734A0F23044601202E6800FA08F000EA88
:100CA0000609814540F0BF804FEA480C032606FA4A
:100CB0000CF66FEA060E6E68012E18BF022E03D0E6
:100CC000112E18BF122E11D1A668EF680EEA060683
:100CD00007FA0CF73E43A660666826EA00006E68D5
:100CE000C6F3001606FA08F630436060E068AE68A6
:100CF0000EEA000006FA0CF63043E0604FEA880086
:100D00006E68022E18BF122E12D14FEAD80604EBDD
:100D1000860600F01C07D6F820A003FA07FB2AEA93
:100D20000B0AD5F810B00BFA07F747EA0A07376243
:100D300026680EEA06072E7906F0030606FA0CF678
:100D40003E4326606E68F6006DD5002600964FEA99
:100D5000980C1668DFF80CE146F48046166000F047
:100D60000C00166806F480460096009E5EF82C7013
:100D700003FA00F627EA06063B4FBC4208BF0027ED
:100D800022D03A4FBC4208BF01271DD0384FBC4289
:100D900008BF022718D0374FBC4208BF032713D023
:100DA000354FBC4208BF04270ED0344FBC4208BFA9
:100DB000052709D0324FBC4208BF062704D0314F67
:100DC000BC420CBF0727082707FA00F030434EF853
:100DD0002C006FEA09000E6800EA060C6E68F60344
:100DE00048BF49EA0C0CC1F800C04E6800EA060C86
:100DF0006E68B60348BF49EA0C0CC1F804C08E689F
:100E000000EA060C6E68F60248BF49EA0C0CC1F80D
:100E100008C0CE6800EA060C6868800248BF49EA4C
:100E20000C0CC1F80CC008F10108B8F10F0F7FF6E7
:100E300032AFBDE8F18F0069084018BF0120C0B291
:100E4000704781B002B9090405E081B042690A40E7
:100E50008A4208BF0904816101B07047003C01402B
:100E600044380240083801400000024000040240BB
:100E700000080240000C0240001002400014024032
:100E800000180240001C0240400D491840EA812031
:100E90000CD2490DA1F58061491C40F0004005DBF2
:100EA000D1F11F0154BFC840C017704700207047E0
:100EB00051EC100B00B500F003F841EC100B00BD35
:100EC00040F2FF7C0CEA115240F2FE33D21A17DDD9
:100ED000352A1DDAB2F1150308DA6FEA4C53D34014
:100EE00031EA5301C9189943002070476FF000029E
:100EF000DA4030EA5200801841F100019043704717
:100F000001F0004104BF41F07C5141F47001002028
:100F10007047000070B44FF0004591EA030F40F1B4
:100F20003F836B40841A71EB030604D26E40001BB2
:100F3000B141121973414FF4001C1CEB410F34BF37
:100F40007CEB430682E00C0DA4EB1356362E7BDCC3
:100F5000012E45EAC32341DC43EA525312BFD202B9
:100F600092025B08240545EAC12141EA5051D2EBC7
:100F7000C020994125D407D1B0FA80F610FA06F1C5
:100F800062D00020203608E0B1FA81F6B140C6F107
:100F9000200220FA02F21143B0404FEAF474B4EB9D
:100FA000465434F001064FEA74040AD8D6F5001608
:100FB000760D04F00044F04061FA06F25040F14032
:100FC0004840C00A40EA415021F0004128BF5FEA92
:100FD000500550F1000044EBD12135E0DB0A45EA31
:100FE000C121C90AB6F120050EDD42EA0242120C07
:100FF000C5F1200603FA06F6EB4042EA06056D420B
:10100000984161F100010DE062FA06F5F2405540A9
:1010100063FA06FC82EA0C02F3405A406D429041AA
:1010200061EB030111F4801F05D1641E620502D03B
:101030006D004041494121F48011430875F100439E
:1010400050F1000041EB045170BC70471CEB410FA4
:1010500015D223F0004352EA43060BD04FEA4C0C62
:10106000BCEB410F04D80C0D661E342EB7DDEBE748
:10107000801A994150EA410608BF0021E4E708BF01
:101080001CEB430F28BF6FF00001DDE71CB500BF6C
:101090002BA0274CD0E90023CDE900232548206070
:1010A0002046FFF76BFB08B100F0C9FC0020009060
:1010B0000190002269462046FFF7A4FB08B100F02A
:1010C000BEFC102269462046FFF79CFB08B100F0E9
:1010D000B6FC13BD10B586B0044601A8142100F07B
:1010E000B7FC2168134A914220D1002000900022D1
:1010F0001148016941F000510161016901F000519D
:101100000091009900923021036843F001030360CD
:101110000322006800F00100009000980191002077
:101120000390029201A90548FFF7ACFD06B010BD7F
:10113000700100200074004030380240000002407E
:101140000000000000000000F8B52DED068B41EC1A
:10115000180B154653EC182BDFF8A003DFF8A0138B
:10116000FFF792FB41EC190B21F00041DFF89423CB
:10117000DFF8943300F070FC6AD253EC192B9FED2A
:10118000B90B03F0004251EC100B0C46144353EC26
:10119000102B51EC190B2346FFF7BCFE00F074FC3A
:1011A000040051D000F08EFC0022D84BFFF76CFBFE
:1011B00041EC190B53EC192B4FF0A040D449FFF729
:1011C00063FB02460B4651EC180B00F0E1F90646B2
:1011D0000F4653EC192B4FF0C040CE49FFF754FB9C
:1011E00002460B463046394600F0D2F906460F4615
:1011F00053EC192B4FF00050C749FFF745FB02464F
:101200000B463046394600F0C3F906460F4653EC0C
:10121000192B0020C149FFF737FB02460B46304629
:10122000394600F0B5F906460F4653EC192B4FF03E
:101230000050BB49FFF728FB02460B4630463946B3
:1012400000F0A6F941EC180B04F003046519BAE0AC
:1012500051EC180B48004015401C51EC180B0DD1F7
:1012600048004015401C02D1090340F04181BDEC0B
:10127000068B4FF0FF306FF00041F4BD21F00041CC
:101280000022914208BF904205D1002D00F030812C
:101290009FEDBC8B2CE153EC192B9FED720B03F0EF
:1012A000004251EC100B0C46144353EC102B51EC44
:1012B000190B23460026FFF72DFE4B0043EAD0739F
:1012C0004200B34208BFB24241EC190B19D040F2C0
:1012D0003344A4EB5352352A04DB00F0000001F044
:1012E00000410CE0202A03DD203AD140914000E08B
:1012F00001D1002003E0012AA4BFD040904041EC7E
:10130000190B51EC190B20F0000231F0004308BF1B
:10131000B24251D053EC192B00207C49FFF7B4FAAC
:1013200041EC1A0B53EC1A2B4FF0A0407849FFF711
:10133000ABFA02460B4651EC180B00F029F90646B1
:101340000F4653EC1A2B4FF0C0407249FFF79CFA3E
:1013500002460B463046394600F01AF906460F465B
:1013600053EC1A2B4FF000506B49FFF78DFA0246F1
:101370000B463046394600F00BF906460F4653EC53
:101380001A2B00206549FFF77FFA02460B463046CC
:10139000394600F0FDF806460F4653EC1A2B4FF085
:1013A00000505F49FFF770FA02460B463046394657
:1013B00000F0EEF841EC180B51EC190B00F064FB57
:1013C00000F00300451951EC180B21F000410022F8
:1013D0004FF0795300F040FB05F0010405D2002CDA
:1013E00000F07E809FED678B7AE053EC182B51EC78
:1013F000180BFFF749FA002C41EC190B36D053ECCF
:10140000192B48484849FFF73FFA484A484BFFF72D
:1014100081FD53EC192BFFF737FA464A464BFFF78D
:1014200079FD53EC192BFFF72FFA444A444BFFF791
:1014300071FD53EC192BFFF727FA424A424BFFF795
:1014400069FD53EC192BFFF71FFA6FF051023F4B68
:10145000FFF760FD53EC192BFFF716FA00223C4B07
:101460003AE000BF000000000000E03F53EC182B02
:10147000FFF70AFA06460F4653EC192B3548364952
:10148000FFF702FA354A364BFFF744FD53EC192BB0
:10149000FFF7FAF9334A344BFFF73CFD53EC192BB5
:1014A000FFF7F2F9314A324BFFF734FD53EC192BB9
:1014B000FFF7EAF92F4A304BFFF72CFD53EC192BBD
:1014C000FFF7E2F92D4A2E4BFFF724FD32463B464B
:1014D000FFF7DAF953EC182BFFF71CFD41EC180B62
:1014E000A80705D551EC180B81F0004141EC180B11
:1014F00051EC180BBDEC068BF4BD000083C8C96D20
:10150000305FE43F0000A0FFFFFFDF410000303EFE
:10151000FB21B941B410114026A6513E5C14D33CC6
:101520009A833B3B09260A1039BA213E3BA861C683
:10153000F97D92BE63AC30909F01FA3EF6FB5116E6
:101540006CC156BFB10255555555A53FFFFFDFBFD2
:101550000000F03FB08F2FC310D8E53D8F0C73A172
:10156000E1E55ABE4DADE44FE31DC73E3EE3B5197C
:10157000A0012ABFFAF010111111813F42555555B3
:101580005555C5BF000000000000F03F0022DBE51C
:1015900070B44FF0004591EA030F7FF5C3AC6B4088
:1015A000841A71EB030603D2001BB1411219734177
:1015B0004FF4001C1CEB410F34BF7CEB430442E0B2
:1015C0000C0DA4EB1356352E4FDC45EAC323DB0A82
:1015D00045EAC121C912B6F120050DDD63FA05F611
:1015E000EB4086EA0305124218BF45F00105C0181A
:1015F00051F100010CD213E062FA06F5F2405540B9
:10160000F3415A40B340F3405A408018594107D340
:1016100049085FEA30005FEA350528BF45F001055B
:1016200001F58011420875F1004250F1000041EBD4
:1016300004514E0016F5001F70BC38BF70470020E3
:10164000090D090570471CEB410F10D252EA430601
:101650000BD0BCEB410F05D80C0DAB43661E342EEE
:10166000B6DD02E0AB438018594170BC704770BCD6
:1016700070470000E549096800224A624A6A8242CE
:10168000FCD37047E24801784164382905D000F165
:1016900048010822001D00F083BA704700000000D6
:1016A000F8B586B000F02CFC00F064FC00F042FCC1
:1016B00000F090F8D64CD748D74D60604FF46120C9
:1016C000A0600020E060206160610C20A06100202B
:1016D000E0612062201D00F007FA00F0C4F800204D
:1016E00000900022CD48016841F480010160002192
:1016F000006800F4800000900098462000F072FC22
:10170000462000F08CFCFFF7C1FC02A8102100F07D
:101710009FF900BFCCA0D0E900674FF0804028605F
:1017200048F69F4068600020A8604FF47A60E86047
:101730000020CDE900672861A8614FF48056284653
:1017400000F098FC029602A9284600F078FD2020BF
:101750000021009001916946AC4F284600F066FEDA
:1017600002A8102100F074F9B5A0D0E90023AC481C
:101770003860532078600020B8604FF6FE70F86043
:10178000CDE90023002038617861B861384600F067
:1017900071FC029602A9384600F051FD002000902D
:1017A00001906946384600F041FE384600F06FFC73
:1017B000201D00F011F9284600F07BFCFEF7E4FC48
:1017C0000122C0219748FFF73CFB00F05BFFFEF7CA
:1017D00001FFFCE780B592B006A8302100F038F98F
:1017E00001A8142100F034F9002000908E4801680F
:1017F00041F0805101600021006800F080500090AD
:1018000000988A4800910121026842F480420260F7
:101810004FF48032006800F48040009000980691F8
:1018200002200C904FF480010D9104200E90642151
:101830000F910220109004210792119106A800F048
:10184000E1FF0F20019002210020029103904FF44C
:10185000A0514FF4805004910590032101A801F09C
:101860005FF913B000BDF8B586B06846142100F0EA
:10187000EFF8002469486B4D6D4E6E4F059401687A
:101880006D4C41F004010160026802F0040205920F
:10189000002205990592036843F080030360016804
:1018A00001F08001059105990592036843F0010359
:1018B0000360016801F00101059105990592036833
:1018C00043F002030360016801F0020105910599EC
:1018D00005924FF42751036843F008030360006842
:1018E00000F00800059005982046FFF7AAFA0122AB
:1018F00021212046FFF7A5FA002248F2C001284620
:10190000FFF79FFA01224FF400613046FFF799FA82
:10191000002204213846FFF794FA42F2210000F039
:1019200053F82046FFF7AEF9C02000F04DF82846E6
:10193000FFF7A8F94FF400601121009001910120F8
:1019400000210290039130466946FFF79BF94FF45E
:10195000704000F02AF83046FFF794F94FF41C600D
:1019600000F02AF82046FFF78DF94FF4807000212F
:1019700000900191029128466946FFF783F94FF4E0
:10198000004000F019F82846FFF77CF94FF480502A
:1019900000F00BF82046FFF775F9042000F014F86A
:1019A0003846FFF76FF907B0F0BD00900021012025
:1019B0000191029069467047009011210020019129
:1019C0000290039069467047009001210020019128
:1019D000029003906946704710B50D4C211D884256
:1019E00013D1FFF74FFE04F14801012000F092FEF1
:1019F00004F15001012000F066FE04F15001201DA9
:101A0000BDE81040082200F0ABB810BDC8000020AF
:101A10007000002000100140080100203038024012
:101A200000000140000002404038024000700040C9
:101A300000040240000C024000080240704770475A
:101A40000000000000000000000000000000000096
:101A5000002201F037B900004FF4001C1CEB410FCD
:101A600094BF1CEB430F09E041EA030C50EA4C0C15
:101A700052EA0C0C03D2994208BF9042704714BF3F
:101A80008B42824270470000C1F30A5340F2FE329B
:101A90009B1A14DDD3F120034FEAE17208DDC9027D
:101AA00041EA505141F00040D84080185040704702
:101AB00003F2E13010B1D24382F0004070470020C1
:101AC00070470000C11768B14840401AB0FA80F270
:101AD0009040D21CC907C2F5846241EA025202EB6F
:101AE000D02140057047000038B5040001D1012025
:101AF00032BD00F022F808B900F023F800F013F826
:101B000000F024F8FFE7416100F001F832BD2068E1
:101B1000C16841F40051C1600020686020206870F5
:101B2000A87000207047242068702068C16821F4E4
:101B30000051C160204600F070B904F138056878A2
:101B4000704700212970204601F01BB92068016907
:101B500021F4904101612068416921F02A01704718
:101B600030B500F138035C78202C17D109B114008E
:101B700001D1012030BD1C78012C0FD001251D7032
:101B800001628284C28400215960212159700021A0
:101B900019700068C16841F080012BE0022030BD5F
:101BA00030B500F138039C78202C21D109B1140004
:101BB00001D1012030BD1C78012C19D001251D70E8
:101BC00081628285C285002159602221997000219D
:101BD00019700168CA6842F48072CA6001684A6973
:101BE00042F001024A610068C16841F0200101E051
:101BF000022030BDC160002030BD416921F04001AC
:101C00004161606B704738B5044625682968EA6809
:101C10006B6911F00F0007D188065FD590065DD57E
:101C20002046BDE83240ADE0D80702D412F4907FE0
:101C300054D0C80705D5D00503D5E06B40F00100AE
:101C4000E063480705D5D80703D5E06B40F00200F4
:101C5000E063880705D5D80703D5E06B40F00400A2
:101C6000E063080707D5900601D4D80703D5E06BD9
:101C700040F00800E063E06B00286ED0890604D5D0
:101C8000900644BF204600F07DF820684069E16B73
:101C90000A0701D440061BD5204600F05FF82068F3
:101CA00041694A060FD5FFF7A8FF60B10FF2C901DD
:101CB0000165606B01F03DF900284ED0606B016D4D
:101CC000BDE8344008472046BDE8324001F034BA50
:101CD000204601F031FA0020E06331BD08062CD522
:101CE00010062AD594F83900212836D1A168206A37
:101CF000B1F5805F0DD10188C1F3080169602069E9
:101D000018B9216A881C206207E0206A411C216200
:101D100003E0411C216200786860E08C401EE08492
:101D200080B2D0B92068C16821F08001C16020680C
:101D3000C16841F04001C16031BD48060DD5500673
:101D40000BD5E86820F04000E860202184F83910C5
:101D50002046BDE8324001F0F0B931BD0168CA68E3
:101D600022F49072CA6001684A69520852004A61BE
:101D7000202180F83A107047806B0021C185C18412
:101D800001F0DAB980B590F83A10222943D182687F
:101D9000B2F5805F14D1826A016941B9036859685C
:101DA000C1F308011180826A911C816218E0016808
:101DB0004B6803F0FF031380816A4A1C82620FE0C4
:101DC00001690029816A04D14A1C82620268536851
:101DD00005E04A1C82620268536803F07F030B70BF
:101DE000C18D491EC18589B299B90168CA6822F0BE
:101DF0002002CA600168CA6822F48072CA60016861
:101E00004A69520852004A61202180F83A10FFF7CF
:101E1000E3FD002002BD022002BDD0B506466427C6
:101E200031680A69F06822F4405202430A611924B9
:101E3000CA682D480240B0680243306902437069A5
:101E40000243F0690243CA604A69B06922F44072F1
:101E500002434A61F3692548254AB3F5004F1FD173
:101E6000914218BF814202D100F0E8FE01E000F08B
:101E7000DDFE0246A4FB02017268D30F520001F09E
:101E80005DF900F037F8FF0032376420B7FBF0F05F
:101E9000420002F4F87202EB011200F007001DE0AC
:101EA000914218BF814202D100F0C8FE01E000F06B
:101EB000BDFE0246A4FB02017268930F920001F07E
:101EC0003DF900F017F83F0132376420B7FBF0F01E
:101ED00000F0F00202EB011200F00F0031688018F0
:101EE0008860D0BD00000000F369FFFF00140140CE
:101EF000001001406421B0FBF1F107FB11077047AE
:101F000080B50B48016841F400710160026842F439
:101F100080620260016841F480710160032000F07A
:101F200054F8002001F022FA00F0E6FE002002BD85
:101F3000003C024010B5012220211648164CFEF745
:101F400080FF00224FF4004100F02CF801224FF4F2
:101F500000611248FEF775FF012200F021F83220DF
:101F600001F024FA002200F01BF8BDE81040FA202E
:101F700001F01CBA10B5094C00224FF4006100F0CA
:101F800011F82046BDE8104001224FF40061FEF731
:101F900058BF000000080240000002400004024058
:101FA0004FF480712046FEF74CBF0000090102008B
:101FB00081B002D42948815405E0294802F00F027B
:101FC000104400F8041C01B07047264A13684FF60D
:101FD000FF0100020B4000F4E0601843224908436F
:101FE0001060704738B51F4B1C68C4F30223C3F15F
:101FF0000704052C28BF04241D1D072D34BF002312
:10200000DB1E012505FA04F4641E2140994005FAFF
:1020100003F35B1E1A401143BDE83440C6E70100DC
:1020200007D4012200F01F01104B8A40400943F8F9
:102030002020704710B5401EB0F1807F01D30120F1
:1020400010BD0B4C60600F214FF0FF30FFF7AEFF6B
:102050000022A26007202060002010BD00E400E004
:1020600018ED00E00CED00E00000FA0500E100E0F2
:1020700010E000E038B5040001D1012032BD00F0CD
:1020800036F818B900F02FF800F050FE21E00221D8
:1020900080F83D1001688A6802F00702062A03D022
:1020A0000A6842F001020A60012180F83D10002018
:1020B00070470068C16841F00101C160816801F0AA
:1020C0000701062903D0016841F0010101600020E9
:1020D000704702206870211D206800F00DF9012072
:1020E0006870002032BD002129702046704704F13D
:1020F0003C056878704710B50446206801698A0776
:1021000015D5C1688A0712D56FF00202026101215C
:102110002177806910F0030F204602D001F05AF9B0
:1021200003E001F058F900F087F8002020772068DC
:1021300001694A0715D5C1684A0712D56FF0040234
:10214000026102212177806910F4407F204602D08D
:1021500001F040F903E001F03EF900F06DF80020D5
:102160002077206801690A0715D5C1680A0712D5CA
:102170006FF00802026104212177C06910F0030F9B
:10218000204602D001F026F903E001F024F900F026
:1021900053F80020207720680169CA0615D5C16868
:1021A000CA0612D56FF01002026108212177C069BA
:1021B00010F4407F204602D001F00CF903E001F05A
:1021C0000AF900F039F80020207720680169CA0771
:1021D00008D5C168CA0705D56FF001020261204623
:1021E000FFF72CFC206801690A0608D5C1680A06B9
:1021F00005D56FF080020261204601F0EDF82068FD
:1022000001694A0608D5C1684A0605D56FF0400243
:102210000261204601F0E1F8206801698A060AD5CA
:10222000C1688A0607D56FF0200202612046BDE82A
:10223000104001F0D3B810BD204601F0D0B838B539
:1022400000F04FF801D1022032BD0122227002209D
:1022500060702A68DFF8380193680340936008686B
:10226000020018BF10282DD0202818BF302829D0F0
:10227000402823D0502816D0602818D0702803D0CA
:10228000B0F5005F07D021E000F026F828688168EB
:1022900041F0770105E000F01FF82868816841F4FB
:1022A0008041816012E000F013F850210BE0CA6811
:1022B0004968286800F093F8602104E000F008F80D
:1022C000402100E00146286800F09BF80FE0000084
:1022D000CA684968286873E0CB684A6889682868D2
:1022E00097E0054605F13C0420780128704701205D
:1022F00060700020207032BDF0B5264C0568264B7A
:10230000264E274FDFF89CC0A04218BFB0F1804F87
:1023100007D0604518BFB84203D0B04218BF9842FA
:102320000DD14A6825F070051543A04218BFB0F1E1
:10233000804F17D060451CBFB842B04212D09842BF
:102340001CBF194A90420DD0184A90421CBF184A2F
:10235000904207D0174A90421FBF174A9042174A2F
:10236000904203D1CA6825F4407515434A6925F0A7
:10237000800515430560A0428A68C2620A688262CD
:1023800012BF98420969016301214161F0BD00005B
:102390008800FFFF0000014000040140000C0040E5
:1023A000000800400004004000400140004401409B
:1023B0000048014000180040001C00400020004080
:1023C00010B5036A046A64086400046223F00A0317
:1023D000846924F0F00444EA0214846123E010B517
:1023E000036A23F0100303628369046A23F47043D1
:1023F00043EA023324F0A004836144EA0114046236
:1024000010BD826822F07002114341F00701816023
:10241000704710B5846824F47F442143114341EA96
:102420000321816010BD1943016210BD78B500F130
:102430003C031A78012A01D1022072BD01241C70CC
:1024400002225A7005686E68AC680A6826F0700649
:1024500016436E6002681148824218BFB2F1804F85
:1024600011D00F4882421CBF0E4882420BD00E484A
:1024700082421CBF0D48824205D00D4882421CBFDB
:102480000C48824204D1486824F0800404439460DC
:10249000012058700020187072BD0000000001403B
:1024A0000004004000080040000C0040000401400F
:1024B000004001400018004018B585B0684614215E
:1024C000FFF7C6FA002001900124009402940BE06B
:1024D00018B585B068461421FFF7BAFA112000211B
:1024E000019002910124009403946946C148FEF7CB
:1024F000C9FB06B010BD30B5BF4988B106200860E1
:102500000022402048604FF4F0733C20886046244D
:102510000A20C8604FF4CD750920086137200DE00E
:1025200002200860032208204860886046230320B8
:10253000C860092401200861282507204D620C622B
:10254000CB618A61486130BD38B500F0BAF801202E
:10255000FFF790F8FFF7BCFF00F035F8A64DE869EB
:10256000FFF788F8012200F030F8286AFFF782F8B8
:10257000FFF7A2FF01212046FEF75DFC0446686AD2
:10258000FFF778F8204632BD38B5FFF7A1FF0520E8
:10259000FFF770F800F017F8974D2868FFF76AF812
:1025A000012200F012F82869FFF764F8FFF784FFB2
:1025B00001212046FEF73FFC04463720FFF75AF87A
:1025C00004F0010032BD8B4C002201212046FEF7B1
:1025D00038BC38B500250824FFF7D6FF6D1008B1C8
:1025E00045F08005641EF7D1284632BD70B504461B
:1025F00000F067F8FFF76CFF7F4D7E4E64B100F08E
:1026000018F82868FFF736F8012200F013F8686818
:10261000BDE87040FFF72EB800F00BF84120FFF73F
:1026200029F8012200F006F8E868BDE87040FFF7DD
:1026300021B8002201213046FEF703BC38B505461B
:10264000082405F00100FFF7D1FF6D10641EF8D1DA
:1026500031BDF0B50346002000240FE09D5C082248
:1026600000F00106400805F0010797EA060F18BFC1
:1026700080F08C006D08521EF2D1641CE2B28A42D6
:10268000ECD3F0BD38B500F01CF8FFF75DFFB0B932
:102690003320FFF7D3FF3C20FEF7ECFF0024574D1B
:1026A000FFF797FF2855641C082CF9DB0821284602
:1026B000FFF7CFFF297A884201D0002032BD0120E8
:1026C00032BD012017E738B504460D46FFF7F9FF84
:1026D00000F08AF8FFF738FFD8B900F083F8F0204F
:1026E000FFF7ACFF640104F0FF00FFF7A7FF002035
:1026F000FFF7A4FF6420FEF7BDFF0024FFF769FF8A
:10270000E1B2641C6854E0B20828F7DBBDE8314050
:102710001AE731BD2DE9F0410C46FFF7D2FF00F07A
:1027200063F8FFF711FF00283FD100F05BF80F209E
:10273000FFF784FF2020FFF781FF0020FFF77EFFD7
:102740000025E8B26D1C205CFFF778FFE8B207288F
:10275000F7DDFFF73EFFFFF73CFFFFF7F5FE20BB7D
:1027600000F040F8AA20FFF769FFFFF732FF0546A7
:10277000FFF72FFF0646FFF72CFF80460A20FEF7E3
:1027800079FF00241E4FFFF724FFE1B2641C785448
:10279000E0B20728F7DDFFF71CFFFFF71AFFC8209C
:1027A000FEF768FFFFF7D0FE08B1002018E000F048
:1027B00019F85520FFF742FF2020FFF73FFF0020C8
:1027C000FFF73CFF0720FFF739FF43F2C820FEF771
:1027D00051FFFFF7FEFEBD70FE7087F80080387174
:1027E000BDE8F081CC2029E7002201210148FEF755
:1027F00028BB00000008024048010020A80100207A
:10280000B00100202DE9F843040016D02078DFF84D
:102810000063C10713D5B06800F00C00042807D08E
:10282000B06800F00C0008283ED1706841023BD52A
:102830003168880303D56068002800F0FB802178A8
:10284000B44F880719D5B06810F00C0F07D0B068E6
:1028500000F00C00082858D17068410255D4316846
:10286000880703D5E068012840F0E48031682069DA
:1028700021F0F80141EAC00131602178080768D5EC
:102880006069A54900285ED001220A6000F0A8FD19
:102890000546706F810700F1CF8000F0A1FD401B5D
:1028A0000228F6D9032030E16068B0F5803F06D0F9
:1028B000B0F5A02F316807D141F480213160306834
:1028C00040F48030306006E021F4803131603268BD
:1028D00022F480223260606858B100F081FD054624
:1028E00031688803ABD400F07BFD401B6528F7D32B
:1028F000D8E700F075FD0546306881039FD500F0EC
:102900006FFD401B6528F7D3CCE7E06870B101216B
:10291000396000F065FD05463068810700F1B88038
:1029200000F05EFD401B0228F6D9BBE7386000F0DE
:1029300057FD0546306881079FD500F051FD401BCB
:102940000228F7D9AEE7086000F04AFD0546706F2F
:10295000810771D500F044FD401B0228F7D9A1E79B
:102960000528306F06D140F004003067306F40F02A
:10297000010005E0400840003067306F20F004009F
:10298000306741F28938A06868B100F029FD8146BE
:10299000306F810700F1898000F022FDA0EB090073
:1029A0004045F5D37EE700F01BFD8146306F81077F
:1029B0007BD500F015FDA0EB09004045F6D371E78B
:1029C00000F00EFD401B022840F282806AE700F012
:1029D00007FD001B022840F2938063E70020386661
:1029E00000F0FEFC04463068810140F18D8000F06B
:1029F000F7FC001B0228F6D954E701281AD07068AA
:102A0000E26900F48001914202BF00F03F01226AB6
:102A100091420FD147F6C071626A0140914202BFF4
:102A200000F44031A26A914202BF00F07060E16A96
:102A3000884269D0012068E0207841073AD5306C9F
:102A40000025C1000AD400950125306C40F080506B
:102A50003064306C00F0805000900098DFF8BC804B
:102A6000D8F80010C8051BD4D8F8000040F48070D6
:102A7000C8F8000000F0B4FC8146D8F80010C80582
:102A80000ED400F0ADFCA0EB09000228F5D909E74F
:102A90003068216920F0F80040EAC1003060ECE6BF
:102AA000A06801287FF45CAF60E71DB1306C20F0B6
:102AB00080503064A06938B3B16801F00C01082976
:102AC0009BD002288AD10020386600F089FC054698
:102AD000306881013FF574AFE169206AA26A014361
:102AE000606A520841EA8011521EE06A41EA0241DE
:102AF00041EA006171600121396600F071FC044611
:102B0000306881017FF563AF0020BDE8F28300BF2C
:102B10000038024000004742800E474200700040EB
:102B20002DE9F84304000F4678D0494E306800F094
:102B30000F00B84202D200F073F86FD12068454D03
:102B4000810712D5400703D5A86840F4E050A8607B
:102B50002178080703D5A86840F46040A860A968F8
:102B6000A06821F0F0010143A9602078C1074DD58C
:102B70006068012802D129688A0305E0022818BF8D
:102B8000032803D129688A0103D447E02A68910702
:102B900044D5A968890840EA8100A86041F28939D2
:102BA00000F01EFC8046A868616800F00C00B0EBE5
:102BB000810F2BD000F014FCA0EB08004845F2D3A5
:102BC000032021E02078410705D5A968E06821F4B9
:102BD000E0510143A9602078010706D5A868216962
:102BE00020F4604040EAC100A86000F03FF8AA6805
:102BF0001949C2F30312895C184AC840106018488A
:102C0000006800F0B3FB0020BDE8F283306800F0FC
:102C10000F008742D6D200F003F8D3D00120F3E7AB
:102C20003770316801F00F01B94270470B480D4A07
:102C3000006813680C49C3F3822206E00748094A7A
:102C4000006813680849C3F34232895CC840704782
:102C5000003C024000380240903400080C00002084
:102C60000800002008380240B035000818B5124CA2
:102C7000606800F00C00042802D0082802D019E097
:102C80000E4812BD00232268206841022068C0F36C
:102C900088104CBF09490A4902F03F02A1FB00011C
:102CA00000F04CFA2168C1F30141491C4900B0FB16
:102CB000F1F012BD024812BD0438024000127A0041
:102CC0000024F40000B500BF130096469446103966
:102CD00028BFA0E80C50FAD85FEA417C28BF0CC09E
:102CE00048BF40F8042BC90728BF20F8022B48BF73
:102CF00000F8012B00BD000081B0002000900022F0
:102D00004B48416841F480414160416801F4804191
:102D1000009100990092036843F0805303600068BB
:102D200000F080500090009801B0704780B50068B6
:102D3000404A3F4990420BD1002000904A6842F03F
:102D400001024A60486800F001000090009801BD4F
:102D5000B0F1804F14D1002000900A6842F00102C7
:102D60000A600022086800F001000090002100982D
:102D70001C20FFF737F9BDE802401C20FFF74FB9D0
:102D800001BD38B586B0044601A81421FEF760FEE7
:102D90002168294A914248D100200090002227480A
:102DA000274D416941F010014161416901F0100175
:102DB0000091009900924FF4C061036843F0010351
:102DC00003600222006800F0010000900098019169
:102DD000012003900321072004910590029201A98C
:102DE0001848FDF74FFF184828604FF000606860F2
:102DF0004020A8600020E8604FF480602861002037
:102E00006861A861E86128626862284600F01EF8DF
:102E100008B1FEF714FE2563AC63002200212520D3
:102E2000FFF7E0F82520FFF7FAF807B030BD000003
:102E3000403802400000014000100140303802409C
:102E40001000002000000240B86402407CB5044637
:102E500000F0C6FA06460CB9012076BD04F134052F
:102E6000002028700220687000F043F9216808688B
:102E7000C20720D500F0B4FA801B0628F6D3202024
:102E80002862032015E0B0F5005F09D1032E42D877
:102E9000DFE806F00C0A0C02B1F1C07F3BD105E07F
:102EA000022E03D9F61E36D1C80134D5402028623F
:102EB0000120687076BD0A68DFF82402024060686D
:102EC0000243A0680243E06802432069024360694C
:102ED0000243A0690243E0690243206A0243606A38
:102EE000042803D1E36A206B03431A430A60236872
:102EF0005A69606AD208042840EAC2020BD1A66A65
:102F0000E16A324339B1A0690028BCD1002E18BF54
:102F1000022EC9D0C0D35A61204600F0F5F8A96A44
:102F20003F228A40826000202862012068700020D1
:102F300076BD90F83510022903D080224265012029
:102F40007047052180F8351000680168490849007C
:102F50000160002070472DE9FC41044604F134066D
:102F60000020604900904FF41650776A0A683D6867
:102F7000B2FBF0F8B06A082100F0B7F80ED0206874
:102F8000026853070AD5036823F004030360B06A9C
:102F90008140B960306A40F001003062B06A25FAC1
:102FA00000F1C9070BD521684A69110607D501212F
:102FB00001FA00F0B860306A40F00200306204218B
:102FC00000F092F808D021680A68930704D5B86029
:102FD000306A40F004003062102100F085F81BD008
:102FE00021680A68130717D5B860206801684A038A
:102FF00007D5006801030BD5716969B12046884780
:103000000AE00168CA0503D4026822F008020260DF
:10301000F16809B120468847B06A202100F065F8C0
:1030200041D021680A68D3063DD5B8602068717820
:10303000052920D1026822F0160202602068416949
:1030400021F080014161F168002904BF7069002806
:1030500004D02068016821F0080101603F22B06AB5
:103060008240BA6000F04BF8F169002935D0204663
:10307000BDE8FC41084701684A0307D50068010321
:103080000DD4316979B1204688470CE00168CA0542
:1030900005D4026822F01002026000F030F8B16836
:1030A00009B120468847306AB8B1316AC8070ED5E1
:1030B0000520707000F01DF820680099491C8845B3
:1030C000009102D30168CA07F7D400F018F8B1697B
:1030D00019B12046BDE8FC410847BDE8F381000076
:1030E0003F8010F00C000020B06A01FA00F00542A9
:1030F0007047206801684908490001607047002056
:10310000307001207070704781B0016801F0FF02DB
:10311000103A1823B2FBF3F205A39B5CC365890A3E
:103120008902042A28BF091D8165084601B070473D
:10313000000610160006101670477047B3BBD9B1D1
:10314000B2F5803F7DD2022A1ED98C46B1FBF2F146
:1031500002FB11C31B0443EA1043B3FBF2FC02FB66
:103160001C3380B240EA0343B3FBF2F002FB10329F
:1031700040EA0C4000237047022A05D98446B0FB80
:10318000F2F002FB10C270474AB105D100F0010213
:1031900049085FEA3000704700220023704700F0C2
:1031A00025B90B000200002100207047904271EB0E
:1031B000030CF6D3B3F5803F2FD2F0B5B3FA83F703
:1031C000B1FA81F4A7F10F0E3D1B5340CEF120065A
:1031D00002FA0EF2F3415340B5F10F0746D80F3C07
:1031E0002C444140C4F12006A040F1414140B1FBD4
:1031F000F3F603FB1611A2FB0645001BA94102D200
:10320000761E8018594180EA010221FA0EF362FA13
:103210000EF200215A403046F0BD30B4B1FBF3FC51
:1032200003FB1C11A2FB0C45001BA94103D2ACF10E
:10323000010C8018594130BC02460B466046002103
:103240007047B2F1807F65D3F0B5B2FA82F7B1FA78
:1032500081F4C7F10F063D1B22FA06F307F1110EA8
:10326000F24120355A40B5F10F07B8D94140C4F1B9
:103270002006A040F1414140B1FBF3FC03FB1C11CF
:10328000A2FB0C45001BA94103D2BCF1010C801824
:1032900059410F2F12D30F3FC90341EA5041B1FBEF
:1032A000F3F603FB1611A2FB0645D4EBC030A9418F
:1032B00002D2761E8018594146EACC3C07B3414001
:1032C000C7F12006B840F1414140B1FBF3F603FBE2
:1032D0001611A2FB0645001BA94102D2761E8018DA
:1032E000594180EA010221FA0EF3C7F1200462FA83
:1032F0000EF20CFA07F05A402CFA04F13043F0BDFC
:1033000080EA010221FA0EF3002162FA0EF2604611
:103310005A40F0BD8C46B1FBF2F102FB11C31B0217
:1033200043EA1063B3FBF2FC02FB1C331B024CEAC2
:10333000002043EA1063B3FBF2FC02FB1C331B02C8
:103340004CEA002043EA1063B3FBF2FC02FB1C339F
:103350001B024CEA002043EA1063B3FBF2FC02FBC1
:103360001C324CEA002000237047000038B50D4D98
:103370000D4A297804464FF47A70B0FBF1F11068D9
:10338000B0FBF1F0FEF756FE50B9102C08D2002227
:1033900021464FF0FF30FEF725FEAC60002032BD25
:1033A000012032BD000000200C00002038B504468A
:1033B00000F016F814F1010F054602D00448017818
:1033C000641800F00DF8401BA042FAD331BD00BFD5
:1033D0000000002070477047704770477047704783
:1033E00001484068704700BF00000020704719E0A6
:1033F00050F8042BD30744BFA9F101039A18091F01
:103400000023042942F8043BF9D25FEA817C134689
:1034100004D54FF0000CA2F800C09B1CC90744BFA4
:103420000021197050F8041B0029E1D170470000F9
:103430007047FEE7FEE7FEE7FEE77047704770471C
:1034400000F010B80448FEF756BE0448FEF7DBBB98
:103450000348FFF780BD0000080100207400002031
:1034600010000020024841680278891841607047C6
:10347000000000200448054A016841F47001016021
:103480004FF000601060704788ED00E008ED00E04C
:103490000000000000000000010203040607080904
:1034A00010B450F8041B79B1026843680244083034
:1034B000DC0744BFA9F10104E31852F8044B43F8B8
:1034C000044B091FF9D1ECE710BC704710B5074950
:1034D00079441831064C7C44163404E00A68081D0F
:1034E000114488470146A142F8D110BD2C000000CC
:1034F0004C0000004EF68851CEF20001086840F4FE
:1035000070000860BFF34F8FBFF36F8F4FF00070F4
:10351000E1EE100A70470000D7FEFFFFA80100008F
:10352000100000200000000079FFFFFF10000000E5
:1035300064000000000000200000000000F00DF812
:10354000002801D0FFF7C2FFAFF300800020AFF3E7
:103550000080FEF7A5F800F002F80120704700F0A7
:1035600001B800000746384600F002F8FBE700000B
:1035700080B5AFF30080024A11001820ABBEFBE714
:1035800026000200014880470148004775340008C2
:10359000A535000801000000000000001000000038
:1035A0000024F400AFF30080FFF7A4FFFFF7C6FF8D
:1035B0000000000001020304FFF7FEBFFFF7FEBF9B
:1035C000FFF7FEBFFFF7FEBFFFF7FEBFFFF7FEBF2F
:1035D000FFF7FEBFFFF7FEBFFFF7FEBFFFF7FEBF1F
:1035E000FFF7FEBFFFF7FEBFFFF7FEBFFFF7FEBF0F
:1035F000FFF7FEBFFFF7FEBFFFF7FEBFFFF7FEBFFF
:10360000FFF7FEBFFFF7FEBFFFF7FEBFFFF7FEBFEE
:10361000FFF7FEBFFFF7FEBFFFF7FEBFFFF7FEBFDE
:10362000FFF7FEBFFFF7FEBFFFF7FEBFFFF7FEBFCE
:10363000FFF7FEBFFFF7FEBFFFF7FEBFFFF7FEBFBE
:10364000FFF7FEBFFFF7FEBFFFF7FEBFFFF7FEBFAE
:10365000FFF7FEBFFFF7FEBFFFF7FEBFFFF7FEBF9E
:10366000FFF7FEBFFFF7FEBFFFF7FEBFFFF7FEBF8E
:10367000FFF7FEBFFFF7FEBFFFF7FEBFFFF7FEBF7E
:10368000FFF7FEBFFFF7FEBFFFF7FEBFFFF7FEBF6E
:10369000FFF7FEBFFFF7FEBFFFF7FEBFFFF7FEBF5E
:1036A000FFF7FEBFFFF7FEBFFFF7FEBFFFF7FEBF4E
:1036B000FFF7FEBFFFF7FEBFFFF7FEBFFFF7FEBF3E
:1036C000FFF7FEBFFFF7FEBFFFF7FEBFFFF7FEBF2E
:1036D000FFF7FEBFFFF7FEBFFFF7FEBFFFF7FEBF1E
:0436E000FFF7FEBF33
:04000005080035A515
:00000001FF
